:100000000C94C2060C9406070C9406070C94060781
:100010000C9406070C9406070C9406070C9406072C
:100020000C9406070C9406070C944C100C941E11AB
:100030000C9406070C9406070C9406070C9406070C
:100040000C9406070C94E42A0C9406070C940607FB
:100050000C9406070C94EB200C9406070C940607EE
:100060000C9406070C9406070C9406070C940607DC
:100070000C9406070C9406070C9406070C940607CC
:100080000C9406070C9406070C9406070C940607BC
:100090000C9406070C9406070C9406070C940607AC
:1000A0000C9406070C9406070C9406078311A511FF
:1000B0009012A5119012E7110A1290125F1272129B
:1000C000A315A315D115D1152D1669165A185A184E
:1000D00081165A187817781734185A185A18481869
:1000E0006E6F7420737570706F727465642E0A0081
:1000F0000A0A4A756D7020746F20626F6F746C6F9E
:10010000616465722E2E2E200000F0F1A1048D088E
:100110008A018D060819081B08292B35E1E0001E0D
:1001200014041D4A311F1A161B4D2C20080706C146
:10013000E321150919E2C122170A0500C6232A0086
:10014000C5003124C7002B004B251C0B1100E426F1
:10015000180D102F4E270C0E36302C2D120F375045
:10016000E72E13335251F52A3428384F000101018C
:100170000101003A01010101013B01010101013CC2
:1001800001010101013D01010101013E01010100E7
:100190000144C4000100014501000100A83F010124
:1001A0000100014001500101A941525101010142E8
:1001B000014F0101014301010101AA0101010101F6
:1001C00000C0010101010001010101010101010162
:1001D000010101010101010101010101010101010F
:1001E0000101010001010100010001C40100010041
:1001F00001010101010001010101010101010101F0
:1002000001010101010101010101010101010101DE
:1002100001010101000101010101000101010101D0
:1002200001010101010101010101010101010101BE
:1002300001010101010101000101010001000101B1
:100240000100010001530000000001545F5C59628D
:100250000155605D5A630155615E5B380156565722
:100260005758012A2A585858000A0025303136625A
:10027000003A200025303258000A722F63203031B6
:1002800032333435363738394142434445460A0023
:100290000A002530325800626F756E6365213A207E
:1002A000006C6566742073696465206174746163B1
:1002B0006865640A006C6566742073696465206E05
:1002C0006F7420726573706F6E64696E670A007474
:1002D0007279696E6720746F207265736574206D22
:1002E000637032333031380A005B735D004B6579DF
:1002F000626F6172642073746172742E0A005553C8
:100300004220636F6E666967757265642E0A005BD2
:10031000575D005B535D005B525D005B445D005BBD
:10032000435D0010034500720067006F0064006FBA
:100330000078000000100354004D004B002F0043D4
:10034000007500620000000403090409028D000525
:100350000100A0320904000001030101000921117C
:10036000010001223F000705810308000A0904017A
:10037000000103010200092111010001224D0007C3
:1003800005820308000A09040200010300000009B5
:1003900021110100012236000705830308000A0924
:1003A00004030002030000000921110100012220C2
:1003B000000705840320000107050403200001094C
:1003C0000404000103000000092111010001223989
:1003D000000705850310000112011001000000084C
:1003E000EDFE071301000102000105010906A1014C
:1003F000050719E029E71500250195087501810217
:1004000005081901290595057501910295017503E6
:1004100091010507190029771500250195787501C7
:100420008102C00631FF0974A1010975150025FF7D
:100430009520750881020976150025FF952075081D
:100440009102C005010980A101850216010026B7AD
:10045000001A01002AB700751095018100C0050C33
:100460000901A1018503160100269C021A01002A38
:100470009C02751095018100C005010902A10109C6
:1004800001A100050919012905150025019505752A
:1004900001810295017503810105010930093115BA
:1004A00081257F95027508810609381581257F957C
:1004B0000175088106050C0A38021581257F950112
:1004C00075088106C0C005010906A101050719E0EC
:1004D00029E7150025019508750181029501750828
:1004E00081010508190129059505750191029501FC
:1004F000750391010507190029FF150025FF9506D1
:1005000075088100C00A002530325820006B6579DB
:10051000626F6172645F7265706F72743A20000A74
:100520000025303258006B6579626F6172645F73C9
:1005300065745F6C65643A200064656C5F6B657917
:100540005F6269743A2063616E27742064656C3A57
:1005500020253032580A006164645F6B65795F6200
:1005600069743A2063616E2774206164643A2025BF
:100570003032580A00646F6E652E0A00626F6F7425
:100580006D61676963207363616E3A202E2E2E20A1
:1005900000290A002575002F002575005D2800251B
:1005A00064002000256400200025640020002564EC
:1005B000007C0025303258006D6F7573656B65796E
:1005C000205B62746E7C782079207620685D2872CA
:1005D00065702F61636C293A205B006D6B5F7768F3
:1005E00065656C5F74696D655F746F5F6D617820C0
:1005F0003D2025640A006D6B5F776865656C5F6DF3
:1006000061785F7370656564203D2025640A006D24
:100610006B5F74696D655F746F5F6D6178203D20FD
:1006200025640A006D6B5F6D61785F73706565644A
:10063000203D2025640A006D6B5F696E74657276DB
:10064000616C203D2025640A006D6B5F64656C6100
:1006500079203D2025640A006D6B5F776865656CC5
:100660005F74696D655F746F5F6D6178203D2025F3
:10067000640A006D6B5F776865656C5F6D61785FBC
:100680007370656564203D2025640A006D6B5F749E
:10069000696D655F746F5F6D6178203D2025640A28
:1006A000006D6B5F6D61785F7370656564203D20E0
:1006B00025640A006D6B5F696E74657276616C20EB
:1006C0003D2025640A006D6B5F64656C6179203D97
:1006D0002025640A000A00257500363A20776865EF
:1006E000656C5F74696D655F746F5F6D61783A20EA
:1006F000000A00257500353A20776865656C5F6DE6
:1007000061785F73706565643A20000A00257500A2
:10071000343A2074696D655F746F5F6D61783A205B
:10072000000A00257500333A206D61785F737065AB
:1007300065643A20000A00257500323A20696E741B
:10074000657276616C286D73293A20000A00257560
:1007500000313A2064656C6179282A31306D732943
:100760003A20000A092D2056616C756573202D0A08
:10077000004D3E004D25643E20003F00736574200F
:1007800064656661756C740A00433E200077686595
:1007900072652064656C74613A20637572736F7260
:1007A0003D25642C20776865656C3D25640A53659A
:1007B0006520687474703A2F2F656E2E77696B69A7
:1007C00070656469612E6F72672F77696B692F4D51
:1007D0006F7573655F6B6579730A000A092D204D8B
:1007E0006F7573656B6579202D0A4553432F713AF8
:1007F00009717569740A313A0964656C6179282A4E
:1008000031306D73290A323A09696E746572766106
:100810006C286D73290A333A096D61785F737065CE
:1008200065640A343A0974696D655F746F5F6D6160
:10083000780A353A09776865656C5F6D61785F7332
:10084000706565640A363A09776865656C5F746936
:100850006D655F746F5F6D61780A0A703A09707236
:10086000696E742076616C7565730A643A09736504
:10087000742064656661756C74730A75703A092B2F
:10088000310A646F776E3A092D310A706775703AD4
:10089000092B31300A7067646F776E3A092D313059
:1008A0000A0A7370656564203D2064656C7461207C
:1008B0002A206D61785F7370656564202A20287234
:1008C0006570656174202F2074696D655F746F5F5A
:1008D0006D6178290A003F004D3E2000433E200014
:1008E0004C25640A000A092D20436F6E736F6C65F6
:1008F000202D0A4553432F713A09717569740A6DA9
:100900003A096D6F7573656B65790A000A092D20C8
:100910004D61676963202D0A643A096465627567F1
:100920000A783A096465627567206D617472697846
:100930000A6B3A096465627567206B6579626F615D
:1009400072640A6D3A096465627567206D6F75732C
:10095000650A763A0976657273696F6E0A733A09A9
:100960007374617475730A633A09636F6E736F6CA5
:1009700065206D6F64650A302D343A096C617965C4
:1009800072302D34284631302D4634290A50617595
:10099000733A09626F6F746C6F616465720A653ACD
:1009A00009656570726F6D0A6E3A094E4B524F0AB7
:1009B0007A3A09736C656570204C45442074657300
:1009C000740A000A002575002E6E6B726F3A2000C3
:1009D0000A002575002E737761705F6261636B7327
:1009E0006C6173685F6261636B73706163653A2009
:1009F000000A002575002E737761705F677261765B
:100A0000655F6573633A20000A002575002E6E6FDE
:100A10005F6775693A20000A002575002E737761BB
:100A2000705F72616C745F726775693A20000A00CA
:100A30002575002E737761705F6C616C745F6C67F5
:100A400075693A20000A002575002E636170736C89
:100A50006F636B5F746F5F636F6E74726F6C3A205D
:100A6000000A002575002E737761705F636F6E74E6
:100A7000726F6C5F636170736C6F636B3A20000A16
:100A80000025303258006B65796D61705F636F6E61
:100A90006669672E7261773A20000A002575002E7C
:100AA0006D6F7573653A20000A002575002E6B6521
:100AB00079626F6172643A20000A002575002E6D1C
:100AC00061747269783A20000A002575002E656EFF
:100AD00061626C653A20000A002530325800646576
:100AE0006275675F636F6E6669672E7261773A2021
:100AF000000A0025750064656661756C745F6C6141
:100B00007965723A20003F004E4B524F3A206F6693
:100B1000660A004E4B524F3A206F6E0A0074696DA0
:100B200065725F636F756E743A202530346C580AB5
:100B3000006B6579626F6172645F6E6B726F3A20F1
:100B400025580A006B6579626F6172645F69646C35
:100B5000653A2025580A006B6579626F6172645F9F
:100B600070726F746F636F6C3A2025580A00686F5B
:100B700073745F6B6579626F6172645F6C656473D7
:100B800028293A2025580A000A092D205374617437
:100B90007573202D0A004743433A20342E382E31F6
:100BA000204156522D4C4942433A20312E382E30A6
:100BB00073766E204156525F415243483A20617627
:100BC00072350A004F5054494F4E533A204C554607
:100BD0004120424F4F544D41474943204D4F5553BB
:100BE000454B45592045585452414B455920434F98
:100BF0004E534F4C4520434F4D4D414E44204E4B9C
:100C0000524F203531320A004255494C443A203483
:100C10003065323465372D64697274792028313734
:100C20003A35353A3136204D61792032372032302D
:100C30003136290A005649443A2030784645454421
:100C400028544D4B2F43756229205049443A203097
:100C50007831333037284572676F646F78292056B2
:100C600045523A203078303030310A004445534301
:100C70003A20742E6D2E6B2E206B6579626F617237
:100C800064206669726D7761726520666F722045B7
:100C900072676F646F780A000A092D2056657273B7
:100CA000696F6E202D0A000A6D6F7573653A206FAB
:100CB00066660A000A6D6F7573653A206F6E0A00EA
:100CC0000A6B6579626F6172643A206F66660A002A
:100CD0000A6B6579626F6172643A206F6E0A000A6E
:100CE0006D61747269783A206F66660A000A6D61F8
:100CF000747269783A206F6E0A000A6465627567DB
:100D00003A206F6E0A000A64656275673A206F6662
:100D1000660A000A0A626F6F746C6F616465722EF6
:100D20002E2E2000433E20006565636F6E66696766
:100D30003A0A00536C656570204C45442074657315
:100D4000740A000000000000000000000000010222
:100D500004060A0F17202C3A4A5D71879DB3C7DA43
:100D6000E9F5FCFFFCF5E9DAC7B39D87715D4A3A06
:100D70002C20170F0A0604020100000000000000EA
:100D80000000000011241FBECFEFDAE0DEBFCDBFB0
:100D900004B603FE24C08091FB019091FC01A09158
:100DA000FD01B091FE018730904BA740B04BB9F4E4
:100DB0001092FB011092FC011092FD011092FE01B5
:100DC00014BE84B7877F84BF88E10FB6F894809300
:100DD0006000109260000FBEE0E0FFE3099511E0B3
:100DE000A0E0B1E0E4E6F9E502C005900D92AA3377
:100DF000B107D9F721E0AAE3B1E001C01D92AB3FF2
:100E0000B207E1F70E94800D0C94B02C0C94000006
:100E1000FF93EF93E0913A01F0913B01309709F095
:100E20000995EF91FF910895FC018591803011F0B3
:100E3000EFDFFBCF0895FF27E0E230E247FF0CC071
:100E4000419597FF09C0EDE260957095809590956A
:100E5000611D711D811D911D27FF02C0219530E389
:100E600050E2AA27660F771F881F991FAA1FA41791
:100E700010F0A41B63955A95A9F7AA3008F0A95F52
:100E8000A05DAF93F395611571058105910541F75B
:100E9000ED3211F4EF93F395F21718F43F93F395B5
:100EA000FBCF8F91B5DFFA95E1F70895E991F991BC
:100EB0008591803021F0853219F0AADFF9CF0895AD
:100EC00020E0E89455915532C1F3503311F4689401
:100ED00055915A3348F4505390F3220F022E220FAB
:100EE000220F200D250FF4CF0EF4219589919991B1
:100EF000533619F3533729F1533559F1BC0188277B
:100F00009927E8945C3621F48991999168945591D8
:100F1000543639F446EF7EF077FF0DC08FEF9FEF28
:100F20000AC055374AE039F0583540E121F05236D1
:100F300042E009F00895FF93EF937DDFEF91FF9179
:100F4000B7CFFF93EF93FC0181918030B9F360DF5D
:100F5000FBCFFF93EF9368DFF1CFDF93CF93CDB754
:100F6000DEB72596A3DFCF91DF910895611115C0FB
:100F70000E947B1880EF90E00E9414072FEF84E31B
:100F80009CE0215080409040E1F700C000000E94AA
:100F9000102180EE90E00C9414070895272F70E044
:100FA00030E0843060F496E0929FF001939FF00D62
:100FB000112494E5899FE00DF11D112406C086E0FF
:100FC000829FF001839FF00D1124E60FF71FE75E6B
:100FD000FE4F84910895E82FF0E0E05CF109E830DD
:100FE000F10538F4EE0FFF1FE75FFE4F85919491F6
:100FF000089580E090E008958091010181111AC068
:1010000080E40E94BE0A80930101811111C082E137
:101010000E94E80A8093010181110AC08091590160
:1010200087958827879580950E94E80A809301011B
:101030000E94E00A84B1807F84B985B1807F85B940
:101040008AB1837F8AB98BB1837F8BB93E984698EA
:1010500008950E94D2090E94610A809301010E94B2
:10106000190A0E94FC0780B38C7080BB81B3836F28
:1010700081BBEBE4F1E0ADE3B1E011921D9281E0C0
:10108000E935F807D1F708959F92AF92BF92CF92BA
:10109000DF92EF92FF920F931F93CF93DF93809194
:1010A00001018823E1F080913C018F5F80933C0136
:1010B000811115C08FEC92E00E9414070E94610A12
:1010C00080930101882329F085EB92E00E941407A8
:1010D00006C081EA92E00E9414070E94190A0DE3FB
:1010E00011E0C0E0D0E0BB24B39482E0A82ECC2471
:1010F000C394D12C22E9E22E22E0F22EC73030F543
:1011000080910101811168C080E40E94BE0A809331
:101110000101811118C082E10E94E80A8093010157
:10112000811111C080915901879588278795960173
:101130000C2E01C0220F0A94EAF7822B80950E94A0
:10114000E80A809301010E94E00A46C0CA30A1F07B
:1011500028F4C83059F0C93061F005C0CC3089F0AE
:1011600070F0CD3089F0209A289810C0219A2998E3
:101170000DC0229A2A980AC0239A2B9807C0529A27
:1011800001C0539A5B9802C03E9A4698E0EAEA95FD
:10119000F1F78FB179997FC092E081708B25892B0F
:1011A0007C9B02C090E001C094E0892B7D9B02C033
:1011B00090E001C098E0892B7E9B02C090E001C0C6
:1011C00090E1892B9FB19095991F9927991F92952E
:1011D000990F907E892B10C080910101811170C000
:1011E00080E40E94BE0A80930101882309F455C05F
:1011F000912C0E94E00A892DF8019081981739F10D
:10120000808380910001882301F18091DA0180FFC1
:1012100004C087E992E00E9414078091DA0180FF00
:101220000CC0809100011F928F93FF92EF920E9459
:10123000AD070F900F900F900F908091DA0180FF13
:1012400004C080E992E00E941407A09200010E946D
:10125000FC0721960F5F1F4FCE30D10509F04ECF0E
:1012600080910001882371F18150809300018823CF
:1012700039F08FE99FE00197F1F700C0000022C02C
:10128000ABE4B1E0EDE3F1E081918D9391E0EB34DB
:10129000F907D1F717C090E080CF83E10E94E80AF8
:1012A000809301018111A4CF81E40E94BE0A809342
:1012B000010181119DCF0E94F90A982E909499CF37
:1012C00080E09ACF81E0DF91CF911F910F91FF9045
:1012D000EF90DF90CF90BF90AF909F900895E82F50
:1012E000F0E0E55BFE4F80810895CF92DF92EF92B0
:1012F000FF920F931F93CF93DF9389E792E00E94B1
:1013000014073BE4E32E31E0F32EC0E0D0E044E7E5
:10131000C42E42E0D42E0BE612E0DF93CF93DF928F
:10132000CF920E94AD0781E792E00E941407F70177
:1013300081917F0190E00E9454209F938F931F938F
:101340000F930E94AD0789E692E00E941407219650
:101350008DB79EB708960FB6F8949EBF0FBE8DBF8F
:10136000CE30D105D1F6DF91CF911F910F91FF9033
:10137000EF90DF90CF90089580FF03C0259A2D9ABB
:1013800002C025982D9881FF03C0269A2E9A02C08C
:1013900026982E9882FF03C0279A2F9A089527989F
:1013A0002F98089589EA8093800089E080938100D6
:1013B00024982C983F988AB18F748AB96E98479A6E
:1013C0008BB1806B8BB9769A089580910101811160
:1013D0002FC080E40E94BE0A80930101811124C0C5
:1013E00084E10E94E80A8093010181111DC080916F
:1013F000590187958827879580950E94E80A8093F0
:101400000101811111C080915B0187958827879523
:1014100090915A019295990F990F907C892B809504
:101420000E94E80A809301010E94E00A8091010174
:10143000089556985E9825982D9826982E98279866
:101440002F9810925B0110925A01109259010E943C
:10145000E5098FEF90E09093890080938800909346
:101460008B0080938A0090938D0080938C00569A15
:101470005E9A259A2D9A269A2E9A279A2F9A81E07B
:1014800080935B0180935A01809359010E94E50982
:101490002FE782E490E1215080409040E1F700C0C6
:1014A000000056985E9825982D9826982E98279893
:1014B0002F9810925B0110925A01109259010C94CE
:1014C000E50980E28093010180915C0181110EC0E9
:1014D0000E94B80A81E080935C012FEF83ED90E3D6
:1014E000215080409040E1F700C0000080E40E945D
:1014F000BE0A8093010181112EC00E94E80A8093E8
:101500000101811128C00E94E80A80930101811124
:1015100022C08FE30E94E80A8093010181111BC061
:101520000E94E00A80E40E94BE0A809301018111BA
:1015300012C08CE00E94E80A8093010181110BC067
:101540000E94E80A80930101811105C08FE30E9487
:10155000E80A809301010E94E00A80910101811153
:1015600004C00E94E5098093010180910101089562
:101570001092B9008AE08093B800089594EA90939D
:10158000BC009091BC0097FFFCCF9091B900987F70
:10159000983021F0903111F081E008958093BB00E4
:1015A00084E88093BC008091BC0087FFFCCF8091D1
:1015B000B900887F883111F0803471F780E0089598
:1015C00084E98093BC008091BC0084FDFCCF089529
:1015D0008093BB0084E88093BC008091BC0087FFAF
:1015E000FCCF9091B900987F81E0983209F480E0B7
:1015F000089584E88093BC008091BC0087FFFCCFF5
:101600008091BB0008958091700108959FB7F89470
:1016100010925F019FBF9091F201943009F058C081
:101620009091E9009F702091EC0020FF02C020E81B
:1016300001C020E0292B94E09093E9009091EB0009
:1016400090FF43C09091EE0097FF3FC090915D01E5
:10165000992321F09091E80095FF37C010925D0129
:1016600096E03091E80035FD15C03091F20134303C
:1016700061F53091EB0035FD28C0915021F481E0F7
:1016800080935D0122C0EFE9FFE03197F1F700C0E0
:101690000000E7CF8093F1008091E80085FD0AC04B
:1016A0008091E80080FFFCCF8091E8008E778093E6
:1016B000E80006C08FB7F89491E090935F018FBF68
:1016C0002F702093E90080E008952F702093E900A7
:1016D0008FEF0895CF93DF9300D01F92CDB7DEB781
:1016E0002091F201243019F523E029839B838A831A
:1016F0002093E9008FEF9091E800815095FD06C09E
:1017000095ED9A95F1F700008111F5CF8091E800F1
:1017100085FF0DC040E050E063E070E0CE0101962F
:101720000E943F0E8091E8008E778093E8000F9032
:101730000F900F90DF91CF910895CF93DF9300D05A
:101740001F92CDB7DEB72091F201243021F522E0BF
:1017500029839B838A8383E08093E9008FEF9091B4
:10176000E800815095FD06C095ED9A95F1F70000CF
:101770008111F5CF8091E80085FF0DC040E050E079
:1017800063E070E0CE0101960E943F0E8091E80078
:101790008E778093E8000F900F900F90DF91CF919C
:1017A00008952091F2012430F1F422E02093E90021
:1017B0002FEF3091E800215035FD06C035ED3A9508
:1017C000F1F700002111F5CF2091E80025FF0BC0B3
:1017D00040E050E065E070E00E943F0E8091E8003C
:1017E0008E778093E8000895CF93DF93EC0180918A
:1017F000F201843009F047C080910C018823E1F0A8
:1018000080910D018823C1F085E08093E9008FEF7E
:101810009091E800815095FD06C095E19A95F1F709
:1018200000008111F5CF8091E80085FF2CC040E0D9
:1018300050E060E170E017C081E08093E9008FEF35
:101840009091E800815095FD06C095ED9A95F1F7CD
:1018500000008111F5CF8091E80085FF14C040E0C1
:1018600050E068E070E0CE010E943F0E8091E800F9
:101870008E778093E80080E1FE01A0E6B1E0019060
:101880000D928A95E1F7DF91CF9108958FE193E072
:101890000E9414078091F101811109C00E94D10FAB
:1018A0000E942E108091E20084608093E2000895EF
:1018B0008BE193E00E9414071092F101089587E1F3
:1018C00093E00C94140783E193E00E9414070C94B6
:1018D000D12A8FE093E00E9414070E94AB200E945F
:1018E000D72A0E94AD120C94BC0980915E018F5FD3
:1018F00080935E0162E30E94452C911135C01092E5
:101900005E0180915F01882379F18091F20184303A
:1019100049F58091E9008F709091EC0090FF02C032
:1019200090E801C090E0982B84E08093E9008091DA
:10193000EB0080FF14C08091EE0087FF10C0809103
:10194000E80085FF03C01092F100F9CF8091E80014
:1019500080FF05C08091E8008E778093E8009F703B
:101960009093E90010925F01089542E061EC81E0FC
:101970000E944B0F42E061EC82E00E944B0F42E07C
:1019800061EC83E00E944B0F42E261EC84E00E9434
:101990004B0F42E161EC85E00C944B0F8091F40118
:1019A000833009F455C030F4813071F0823009F48D
:1019B0008EC008958A3009F47AC08B3009F460C073
:1019C000893009F09CC020C08091F301813A09F070
:1019D00096C08091E800877F8093E8008091F701AE
:1019E0009091F801892B21F060E080E090E003C045
:1019F00060E180E691E070E00E94880E8091E8004E
:101A00008B778093E80008958091F301813209F08B
:101A100076C08091F7019091F801009719F0049732
:101A200009F06DC08091E800877F8093E800809185
:101A3000E80082FD05C08091F2018111F8CF5FC0FE
:101A40008091F100809370018091E8008B7753C002
:101A50008091F301813A09F052C08091F701909191
:101A6000F801892B09F04BC08091E800877F8093B3
:101A7000E8008091E80080FFFCCF80910C0136C027
:101A80008091F3018132D9F58091F7019091F801AD
:101A9000892BA9F58091E800877F8093E8000E9458
:101AA000800F8091F50180930C010C947B1880913C
:101AB000F301813221F58091E800877F8093E8006F
:101AC0000E94800F8091F6018093710108958091AA
:101AD000F301813AA1F48091E800877F8093E800C8
:101AE0008091E80080FFFCCF809171018093F1002C
:101AF0008091E8008E778093E8000C94800F089521
:101B000084B7877F84BF88E10FB6F8948093600024
:101B1000109260000FBE90E080E80FB6F8948093BA
:101B20006100909361000FBE0E9436130E94D10F96
:101B30000E942E108091E20084608093E20086E093
:101B40009BE00E943D2078948091F2018430E1F77F
:101B50008EEF92E00E9414070E94381382E091E019
:101B60000E94A8120E94BF2A8DEE92E00E941407E4
:101B70008091F201853089F489EE92E00E94140789
:101B80000E946E208091F001882391F30E9496209C
:101B9000882371F30E94290EEBCF0E946613E8CFD1
:101BA000292F332723303105A9F06CF4213031057A
:101BB00009F442C02230310509F043C08DE890E0BD
:101BC0002BE433E042C021323105C9F02232310525
:101BD00019F137C099278130910541F08230910584
:101BE00041F0892B71F5E7E4F3E005C0E5E3F3E0AC
:101BF00002C0E3E2F3E0849190E09F0126C06530EB
:101C000000F5E62FF0E0EE0FFF1FEB5DFE4F2081A9
:101C1000318189E090E019C0653098F4E62FF0E05A
:101C2000DF01AA0FBB1FA55EBE4F2D913C91EA5E5E
:101C3000FE4F808190E009C082E190E028ED33E022
:101C400004C080E090E020E030E0FA01318320839E
:101C5000089580E189BD82E189BD09B400FEFDCF10
:101C60008091D8008F7D8093D8008091E0008260C1
:101C70008093E0008091E00081FDFCCF0895CF9239
:101C8000DF92EF92FF920F931F93CF93DF937C012C
:101C90008B01EA010E94A10F811131C0209731F020
:101CA00088819981081B190BE80EF91EC12CD12CD3
:101CB0000115110519F18091E80085FD14C080918E
:101CC000E8008E778093E800209741F08881998121
:101CD0008C0D9D1D9983888385E011C00E94A10F02
:101CE000882331F30CC0F70181917F018093F100CB
:101CF00001501109FFEFCF1ADF0ADACF80E0DF9140
:101D0000CF911F910F91FF90EF90DF90CF900895AA
:101D10002091F9013091FA012617370748F0611533
:101D2000710539F42091E8002E772093E80001C076
:101D3000B901FC0120E061157105B9F18091F20152
:101D4000882309F440C0853009F43FC08091E80041
:101D500083FD3DC08091E80082FF06C08091E800CD
:101D600082FF26C080E008958091E80080FFE3CFE5
:101D70002091F3008091F20090E0922B61157105A3
:101D800051F08830910538F421912093F100615091
:101D900071090196F3CF21E0089709F020E08091C6
:101DA000E8008E778093E800C6CF2111C7CFD6CF49
:101DB0008091F201882339F0853039F08091E80074
:101DC00083FFCCCF04C082E0089583E0089581E0D2
:101DD00008952091F9013091FA012617370748F04C
:101DE0006115710539F42091E8002E772093E80001
:101DF00001C0B901FC0120E061157105C1F18091BC
:101E0000F201882309F441C0853009F440C0809173
:101E1000E80083FD3EC08091E80082FF06C080910B
:101E2000E80082FF27C080E008958091E80080FFED
:101E3000E3CF2091F3008091F20090E0922B6115A6
:101E4000710559F08830910540F424912093F100F8
:101E50003196615071090196F2CF21E0089709F09F
:101E600020E08091E8008E778093E800C5CF2111B3
:101E7000C6CFD5CF8091F201882339F0853039F073
:101E80008091E80083FFCBCF04C082E0089583E017
:101E9000089581E00895982F973058F59093E900C0
:101EA000981739F07091EC002091ED005091F000FE
:101EB00003C0242F762F50E021FF19C03091EB0092
:101EC0003E7F3093EB003091ED003D7F3093ED008D
:101ED0003091EB0031603093EB007093EC00209375
:101EE000ED005093F0002091EE0027FF07C09F5FA8
:101EF000D3CF8F708093E90081E0089580E008954A
:101F00008091F30187FD05C08091E80080FF0EC03D
:101F100012C08091E80082FD05C08091F20181111C
:101F2000F8CF08958091E8008B7708C08091F20186
:101F30008111EACF08958091E8008E778093E800C0
:101F400008958091E4009091E50045E62091EC0031
:101F500020FF21C02091E80020FD21C02091F20146
:101F6000222389F0253089F02091EB0025FD0FC058
:101F70002091E4003091E5002817390739F34150EA
:101F800041F0C901E3CF82E0089583E0089581E044
:101F9000089584E008952091E80022FFDFCF80E0DB
:101FA00008950E943F100E944710E0EEF0E080810B
:101FB00081608083E8EDF0E080818F77808319BCB9
:101FC000A7EDB0E08C918E7F8C9380818F7E808393
:101FD0001092F10108950F931F93CF93DF930E9406
:101FE0003F100E944710C8EDD0E088818F7788832A
:101FF00088818068888388818F7D888319BC10924E
:10200000F2011092EE011092F0011092EF0100EE39
:1020100010E0F80180818B7F8083888181608883D4
:1020200042E060E080E00E944B0FE1EEF0E0808152
:102030008E7F8083E2EEF0E080818160808380810A
:1020400088608083F80180818E7F808388818061B1
:102050008883DF91CF911F910F910895E8EDF0E013
:1020600080818F7E8083E7EDF0E0808181608083D6
:1020700084E082BF81E08093F1010C94EB0FE8EDE6
:10208000F0E080818E7F80831092E20008951092AC
:10209000DA001092E10008951F920F920FB60F928E
:1020A00011242F933F934F935F936F937F938F935D
:1020B0009F93AF93BF93EF93FF938091E10082FFD3
:1020C0000BC08091E20082FF07C08091E1008B7F0E
:1020D0008093E1000E94750C8091DA0080FF1FC0A0
:1020E0008091D80080FF1BC08091DA008E7F8093A2
:1020F000DA008091D90080FF0DC080E189BD82E1C6
:1021000089BD09B400FEFDCF81E08093F2010E94F9
:10211000460C05C019BC1092F2010E94580C809127
:10212000E10080FF19C08091E20080FF15C080911E
:10213000E2008E7F8093E2008091E20080618093D4
:10214000E2008091D80080628093D80019BC85E0BD
:102150008093F2010E94630C8091E10084FF30C003
:102160008091E20084FF2CC080E189BD82E189BDBD
:1021700009B400FEFDCF8091D8008F7D8093D800F8
:102180008091E1008F7E8093E1008091E2008F7E5C
:102190008093E2008091E20081608093E200809170
:1021A000EE01882311F084E007C08091E30087FFEF
:1021B00002C083E001C081E08093F2010E94690CBB
:1021C0008091E10083FF29C08091E20083FF25C058
:1021D0008091E100877F8093E10082E08093F201AB
:1021E0001092EE018091E1008E7F8093E10080915A
:1021F000E2008E7F8093E2008091E2008061809314
:10220000E20042E060E080E00E944B0F8091F0002D
:1022100088608093F0000E945F0CFF91EF91BF9166
:10222000AF919F918F917F916F915F914F913F916E
:102230002F910F900FBE0F901F9018951F920F9225
:102240000FB60F9211242F933F934F935F936F9389
:102250007F938F939F93AF93BF93CF93EF93FF930E
:10226000C091E900CF708091EC001092E90080915C
:10227000F000877F8093F00078940E945A111092AA
:10228000E9008091F00088608093F000C093E9003D
:10229000FF91EF91CF91BF91AF919F918F917F91DE
:1022A0006F915F914F913F912F910F900FBE0F90C3
:1022B0001F9018951F93CF93DF93CDB7DEB7AA97E2
:1022C0000FB6F894DEBF0FBECDBFE3EFF1E0809113
:1022D000F100819321E0EB3FF207C9F70E94CE0C99
:1022E0008091E80083FF1CC12091F3013091F4013B
:1022F000832F90E08A30910508F012C1FC01EA5A60
:10230000FF4F0C94652C203881F0223809F008C169
:102310008091F7018F708093E9008091EB0085FB3D
:10232000882780F91092E90006C08091EF01909112
:10233000F001911182609091E800977F9093E800FE
:102340008093F1001092F100C5C0822F8D7F09F0BB
:10235000E7C0222319F0223061F0E2C08091F5013C
:10236000813009F0DDC0333009F080E08093F00166
:1023700028C08091F501811124C02091F7012F70B0
:1023800009F4CEC02093E9008091EB0080FF19C0D2
:102390008091EB00333011F4806211C08061809332
:1023A000EB0081E090E0022E01C0880F0A94EAF76A
:1023B0008093EA001092EA008091EB00886080939D
:1023C000EB001092E9008091E800877F86C0211120
:1023D000A7C01091F5011F778091E3008078812BD1
:1023E0008093E3008091E800877F8093E8000E945B
:1023F000800F8091E80080FFFCCF8091E30080682F
:102400008093E300112311F083E001C082E0809308
:10241000F20186C02058223008F082C08091F50178
:102420009091F6018C3D23E0920779F583E08A8351
:102430008AE289834FB7F894DE01139620E03EE0EC
:1024400051E2E32FF0E050935700E49120FF03C0E6
:10245000E295EF703F5FEF708E2F90E0EA3010F062
:10246000C79601C0C0968D939D932F5F243149F785
:102470004FBF8091E800877F8093E8006AE270E0B8
:10248000CE0101960E94880E14C0AE014F5F5F4FCF
:102490006091F7010E94D00D009709F441C020918E
:1024A000E800277F2093E800BC0189819A810E947F
:1024B000E90E8091E8008B778093E80031C02038E6
:1024C00079F58091E800877F8093E8008091EE01A4
:1024D0008093F1008091E8008E778093E8000E945D
:1024E000800F1EC021111CC09091F5019230C0F4E4
:1024F0008091E800877F8093E8009093EE010E942E
:10250000800F8091EE01811104C08091E30087FF6C
:1025100002C084E001C081E08093F2010E94B50C0A
:102520008091E80083FF0AC08091E800877F809354
:10253000E8008091EB0080628093EB00AA960FB6D2
:10254000F894DEBF0FBECDBFDF91CF911F910895EC
:1025500090937701809376010895E0917601F09150
:102560007701309721F00190F081E02D099480E00F
:102570000895FF920F931F93CF93DF938C01E09107
:102580007601F0917701309799F10280F381E02D87
:1025900009958091DA0182FF2BC080FF04C08DE095
:1025A00095E00E941407E80180E1F82E07E015E0AD
:1025B0008091DA0180FF0BC088811F928F931F9357
:1025C0000F930E94AD070F900F900F900F90FA9409
:1025D0002196F110EDCF8091DA0180FF09C085E0EE
:1025E00095E0DF91CF911F910F91FF900C9414070C
:1025F000DF91CF911F910F91FF900895E0917601A7
:10260000F0917701309721F00480F581E02D099455
:10261000089520917401309175018217930771F02C
:102620009093750180937401E0917601F0917701A8
:10263000309721F00680F781E02D099408952091CC
:102640007201309173018217930771F090937301B7
:1026500080937201E0917601F0917701309721F03B
:102660000084F185E02D0994089508950C943513A4
:102670000E94AD200E9429080C947321CF93C82F8B
:102680008091DA0182FF1EC080FF04C086E295E0DF
:102690000E9414078091DA0180FF0CC01F92CF9333
:1026A00021E235E03F932F930E94AD070F900F90EA
:1026B0000F900F908091DA0180FF04C08FE195E0C8
:1026C0000E9414078C2FCF910C94BC09CF92DF92FB
:1026D000EF92FF920F931F93CF93DF93CDB7DEB7A7
:1026E0002B970FB6F894DEBF0FBECDBF0E944408F3
:1026F00039E7E32E31E0F32E00E010E0C02E802F0A
:102700000E946F09F701D1907F01D826B1F40F5FC5
:102710001F4F0E30110591F78FEF89838A831B823B
:102720000E94B6208160782F9D838C8349815A81D5
:102730006B818D810E94091441C09091DA0191FF53
:1027400004C08B870E9475098B8520E030E04D2DF9
:1027500050E0922FBA01022E02C0759567950A9437
:10276000E2F760FF25C02E83CF82EE24E394F12CA4
:1027700002C0EE0CFF1C9A95E2F790E08E219F219B
:1027800021E0892B09F420E028870E94B62081608F
:10279000782F9A8789874E815F8168858A850E9414
:1027A0000914F801E758FE4F80818E25808306C00A
:1027B0002F5F3F4F2630310561F6A9CF0E94E124FB
:1027C000109178010E94AD121817A1F00E94AD126D
:1027D000809378012B960FB6F894DEBF0FBECDBF65
:1027E000DF91CF911F910F91FF90EF90DF90CF90ED
:1027F0000C943E132B960FB6F894DEBF0FBECDBFE0
:10280000DF91CF911F910F91FF90EF90DF90CF90CC
:102810000895CF93DF93CDB7DEB72B970FB6F8941B
:10282000DEBF0FBECDBF4F83588769877A878B87FE
:10283000DE01119686E0FD0111928A95E9F785E0A7
:10284000FE01379601900D928A95E1F749815A81F0
:102850006B817C818D819E810E94471B2B960FB6D8
:10286000F894DEBF0FBECDBFDF91CF910895CF9317
:10287000C82F882309F4C1C0823859F40E94AD12D0
:1028800081FDBBC089E30E94011E0E94E31E89E313
:102890000CC0833879F40E94AD1280FDAEC083E590
:1028A0000E94011E0E94E31E83E50E94521ECF91EA
:1028B0000C94E31E843859F40E94AD1282FD9DC031
:1028C00087E40E94011E0E94E31E87E4EECF8CEF96
:1028D0008C0F813A48F48C2F0E946A2981118DC097
:1028E0008C2F0E94011EE3CF80E28C0F883048F4C9
:1028F000C77081E001C0880FCA95EAF70E94A71E41
:10290000D6CF8BE58C0F833078F4C53A29F0C63AE0
:1029100031F482E890E005C081E890E002C083E8ED
:1029200090E0CF910C94091388E58C0F833108F067
:1029300064C0C83A39F1C93A41F1CA3A49F1CB3ACF
:1029400051F1CC3A59F1CD3A61F1C03B69F1CE3A3F
:1029500071F1CF3A79F1C13B81F1C23B89F1C33BBF
:1029600091F1C43B99F1C53BA1F1C63BA9F1C73B2D
:10297000B1F1C83BB9F1C93BC1F1CA3BC9F58AE223
:1029800092E038C082EE90E035C089EE90E032C02F
:102990008AEE90E02FC085EB90E02CC086EB90E0B3
:1029A00029C087EB90E026C08CEC90E023C08DEC32
:1029B00090E020C083E891E01DC08AE891E01AC051
:1029C00082E991E017C084E991E014C081E292E0CD
:1029D00011C083E292E00EC084E292E00BC085E277
:1029E00092E008C086E292E005C087E292E002C071
:1029F00080E090E0CF910C941F13CF91089588232D
:102A000009F44BC0823859F40E94AD1281FF45C0D1
:102A100089E30E94011E0E94E31E89E30CC08338F3
:102A200071F40E94AD1280FF38C083E50E94011E40
:102A30000E94E31E83E50E94521E0C94E31E84381C
:102A400059F40E94AD1282FF28C087E40E94011E43
:102A50000E94E31E87E4EFCF9CEF980F913A58F362
:102A600090E2980F983050F4877091E001C0990F70
:102A70008A95EAF7892F0E94AD1EDFCF9BE5980F5C
:102A8000933020F480E090E00C940913885A83314D
:102A900020F480E090E00C941F130895882321F027
:102AA0000E94A71E0C94E31E0895882321F00E9423
:102AB000AD1E0C94E31E0895CF92DF92EF92FF9229
:102AC0000F931F93CF93DF93CDB7DEB728970FB641
:102AD000F894DEBF0FBECDBF8C0185E0F801DE01AA
:102AE000119601900D928A95E1F7F80140813181AC
:102AF000F280258122952F7083819481892B31F07A
:102B00003F3F31F481E04F3F19F403C081E001C041
:102B100080E080FDCFC249833A8389819A812F83E7
:102B20000E94BF1D9E8388870E94BE1D0E94911C2B
:102B30004E81E42FE295EF70F0E0E05AFF4F2F81D5
:102B400068850C94652C842F807F142F1F70882338
:102B500011F01295107FFF2059F0112309F45FC284
:102B6000812F68870E94BA1E0E94E31E688557C2A3
:102B7000862F0E94FF14112309F49CC2812F0E940A
:102B8000C01E28960FB6F894DEBF0FBECDBFDF91F2
:102B9000CF911F910F91FF90EF90DF90CF900C9409
:102BA000E31E842F807F942F9F70E92E803219F0CE
:102BB000E29480EFE822662319F0613001F129C028
:102BC000FF20A9F08E2D222349F1213039F52896D6
:102BD0000FB6F894DEBF0FBECDBFDF91CF911F912E
:102BE0000F91FF90EF90DF90CF900C94CA1E22239C
:102BF00019F0213009F45EC20E94CD1E2CC0FF20C6
:102C0000E9F0263008F056C20E94A41E8E2129F059
:102C100022C0FF20F1F0211115C08E2D28960FB68D
:102C2000F894DEBF0FBECDBFDF91CF911F910F9102
:102C3000FF90EF90DF90CF900C944E15253008F068
:102C400039C209C0F801858180FFE9C18F70858391
:102C5000E4CF2111F8C18E2D66C1242F269526952B
:102C6000237030E02115310521F021303105C9F004
:102C700021C2FF2021F0862F942F937002C080E0A4
:102C800090E028960FB6F894DEBF0FBECDBFDF915F
:102C9000CF911F910F91FF90EF90DF90CF900C9408
:102CA0000913FF2021F0862F942F937002C080E03B
:102CB00090E028960FB6F894DEBF0FBECDBFDF912F
:102CC000CF911F910F91FF90EF90DF90CF900C94D8
:102CD0001F13862FFF2019F00E94672302C00E9455
:102CE000CF2328960FB6F894DEBF0FBECDBFDF917D
:102CF000CF911F910F91FF90EF90DF90CF900C94A8
:102D00005424842F837009F076C0F110D3C1262F8C
:102D1000229526952770220F220F862F8F70C82E9E
:102D2000D12CE12CF12C022E04C0CC0CDD1CEE1CAD
:102D3000FF1C0A94D2F764FF10C06FE070E080E0DF
:102D400090E004C0660F771F881F991F2A95D2F75D
:102D5000609570958095909503C060E070E0CB0120
:102D6000242F269526952370422F50E0423051059E
:102D7000D1F04330510559F16C297D298E299F29C5
:102D80004130510541F128960FB6F894DEBF0FBED1
:102D9000CDBFDF91CF911F910F91FF90EF90DF900A
:102DA000CF900C94B61C6C297D298E299F292896DA
:102DB0000FB6F894DEBF0FBECDBFDF91CF911F914C
:102DC0000F91FF90EF90DF90CF900C94D01C0E9459
:102DD000B61CC701B60128960FB6F894DEBF0FBE29
:102DE000CDBFDF91CF911F910F91FF90EF90DF90BA
:102DF000CF900C949C1CFF2019F0842F817001C08F
:102E00008695882309F456C1262F2295269527708A
:102E1000220F220F862F8F70C82ED12CE12CF12C7F
:102E2000022E04C0CC0CDD1CEE1CFF1C0A94D2F751
:102E300064FF10C06FE070E080E090E004C0660FB7
:102E4000771F881F991F2A95D2F7609570958095F6
:102E5000909503C060E070E0CB01242F2695269565
:102E60002370422F50E042305105D1F043305105DC
:102E700059F16C297D298E299F294130510541F155
:102E800028960FB6F894DEBF0FBECDBFDF91CF916D
:102E90001F910F91FF90EF90DF90CF900C948A1DBF
:102EA0006C297D298E299F2928960FB6F894DEBFBC
:102EB0000FBECDBFDF91CF911F910F91FF90EF908B
:102EC000DF90CF900C94A41D0E948A1DC701B6010B
:102ED00028960FB6F894DEBF0FBECDBFDF91CF911D
:102EE0001F910F91FF90EF90DF90CF900C94701D89
:102EF000603F49F118F4603E48F48CC0623F09F429
:102F000051C0E0F1633F09F461C084C0162F1F7007
:102F1000842F8F71FF2021F00E94091D812F7ECE0A
:102F20000E942A1D812F28960FB6F894DEBF0FBE8F
:102F3000CDBFDF91CF911F910F91FF90EF90DF9068
:102F4000CF900C945515FF20A9F0253008F0B2C0A1
:102F5000842F8F7128960FB6F894DEBF0FBECDBFB9
:102F6000DF91CF911F910F91FF90EF90DF90CF9065
:102F70000C944F1D263008F09DC0EACFFF20A1F031
:102F8000842F8F7128960FB6F894DEBF0FBECDBF89
:102F9000DF91CF911F910F91FF90EF90DF90CF9035
:102FA0000C94091DFF2061F3842F8F7128960FB6B2
:102FB000F894DEBF0FBECDBFDF91CF911F910F916F
:102FC000FF90EF90DF90CF900C942A1DFF2091F09E
:102FD000842F8F7128960FB6F894DEBF0FBECDBF39
:102FE000DF91CF911F910F91FF90EF90DF90CF90E5
:102FF0000C94F41C28960FB6F894DEBF0FBECDBF1C
:10300000DF91CF911F910F91FF90EF90DF90CF90C4
:103010000C94EA1CFF20A1F0222309F4B1CF862FE3
:1030200028960FB6F894DEBF0FBECDBFDF91CF91CB
:103030001F910F91FF90EF90DF90CF900C94371479
:10304000222309F4B1CF862F28960FB6F894DEBF5D
:103050000FBECDBFDF91CF911F910F91FF90EF90E9
:10306000DF90CF900C94FF144F70C8010E943A205B
:1030700028960FB6F894DEBF0FBECDBFDF91CF917B
:103080001F910F91FF90EF90DF90CF900C94F41B65
:103090004F70C80128960FB6F894DEBF0FBECDBFA3
:1030A000DF91CF911F910F91FF90EF90DF90CF9024
:1030B0000C94B60728960FB6F894DEBF0FBECDBFAE
:1030C000DF91CF911F910F91FF90EF90DF90CF9004
:1030D00008950E94C71E0E94961E0E94E31E0E9431
:1030E00082250E94542480E090E00E94091380E031
:1030F00090E00C941F130E94B71E0C9469180E9454
:10310000BF1D292F22952F7030E02C3031054CF453
:103110002A3031056CF4225031092230310590F407
:1031200007C02C30310551F02F30310539F00AC07D
:10313000803E10F0803F31F481E0089593FB8827B2
:1031400080F9089580E00895CF93DF9300D000D0F8
:103150001F92CDB7DEB70F900F900F900F900F908A
:10316000DF91CF910895CF93DF9300D000D000D0AE
:10317000CDB7DEB726960FB6F894DEBF0FBECDBF33
:10318000DF91CF9108951F93CF93DF93C091870173
:1031900016E080918801C81799F0D0E01C9FF001DB
:1031A0001D9FF00D1124E757FE4F40815181628130
:1031B0007381848195810E94B3182196C770E9CFED
:1031C000DF91CF911F9108954091B9015091BA01BB
:1031D0006091BB017091BC018091BD019091BE01D5
:1031E0000C94B318CF938091BE0182958F7009F033
:1031F0005FC08091BB01882309F45AC020918701E8
:10320000A09188016091B9017091BA018091BC01CF
:103210009091BD0131E06F3F09F030E0B32FC6E07F
:103220002A1709F445C0009721F07F3F21F44B2F66
:1032300003C041E001C040E030E040FD35C0C29F26
:10324000F001C39FF00D1124E757FE4F4181741325
:103250002BC04081641328C04281411125C04381A5
:1032600054814817590710F441505109481B590B14
:10327000463E5105C8F48091BE018F7080618093F5
:10328000BE0186E0829FF001839FF00D1124E2577A
:10329000FE4F80818F708061808389EB91E00E9476
:1032A0005C15CF910C94C3182F5F3F4F2770B8CF98
:1032B000CF910895CF92DF92EF92FF920F931F93D9
:1032C000CF93DF93CDB7DEB762970FB6F894DEBF2A
:1032D0000FBECDBF8C0185E0F801DE011D96019087
:1032E0000D928A95E1F7D8014C9111965C91119756
:1032F00012966C9112971396ED90FC901497709122
:10330000B901E091BA012091BC013091BD012115B4
:10331000310531F0EF3F31F481E07F3F19F403C014
:1033200081E001C080E0B82FB170CB2E80FD6CC170
:10333000D090BB01DD2009F4F5C0F091BE01E2168A
:10334000F30638F0C701821B930B863E910548F0C7
:103350009BC0209530952E0D3F1D263E310508F06F
:1033600093C08F2F807F09F052C0E51314C07413EF
:1033700012C0D62E61110FC0FF70F061F093BE0134
:103380000E94E41889EB91E00E945C158091BE01D7
:10339000F80185836CC1EF2831F05F3F31F481E0A3
:1033A0004F3F19F403C081E001C080E080FD03C0FD
:1033B00081E0862701C080E0F82FF170FF2E80FFAA
:1033C0001CC0809187012091880136E0821709F4A2
:1033D00028C190E0389FF001399FF00D1124E75784
:1033E000FE4F7181571306C07081471303C072816D
:1033F000671303C001968770E9CFD62E662309F4C0
:1034000036C18091BE0181608093BE0153C0E51337
:1034100008C0741306C0611104C0D8011596FC934E
:10342000AEC04D875E878D859E856A8B0E947F1812
:103430006A89882329F1D62E662311F12091BE01D5
:10344000822F82958F7090E002970CF460C080917B
:10345000B9019091BA0198878F831986FB86EA8615
:103460002C87CE01079651C0E51731F14D875E8755
:103470008D859E856A8B0E947F186A8981112EC076
:10348000C8010E945C15A4C08F2F807F69F77E2D34
:10349000F98AE88A89890E94A41889EB91E00E9440
:1034A0005C15E9EBF1E086E0DF011D928A95E9F712
:1034B0000E94E418D12CDBC07413D8CF6111D6CF91
:1034C000D8011596FC93C8010E945C15E9EBF1E068
:1034D00086E0DF011D928A95E9F7C9C0D62E6623E2
:1034E00079F22091BE01822F82958F7090E0029731
:1034F00074F08091B9019091BA019A8389831B82FB
:10350000FD82EC822E83CE0101960E945C1586E03E
:10351000F801A9EBB1E001900D928A95E1F70E94C4
:10352000F2186FC0E216F30628F0C701821B930B56
:103530009C0104C0209530952E0D3F1D263E31057F
:1035400008F052C0D62E662309F49ACFE5132CC09A
:1035500074132AC08091BE0180FD1DC0982F9295E2
:103560009F70C9F0D80115968C9315979F3039F04C
:103570009F5F9295907F8F70892B15968C93C801D1
:103580000E945C1586E0F801A9EBB1E001900D9274
:103590008A95E1F736C086E0F801A9EBB1E0019029
:1035A0000D928A95E1F763C04D875E878D859E8574
:1035B0000E947F18882379F086E0F801A9EBB1E03A
:1035C00001900D928A95E1F70E94F2180E94E4188A
:1035D000DD24D3944CC08091BE0181608093BE01F4
:1035E000C8010E945C1543C07E2DF98AE88A89894A
:1035F0000E94A418E9EBF1E086E0DF011D928A95B4
:10360000E9F70E94E41833C0662309F439CF4D87E7
:103610005E878D859E850E947F18882309F430CFB0
:10362000CBCF4D875E878D859E850E94BF1D292F3C
:1036300022952F7030E0223031052CF49F7041F03C
:10364000811106C00CC0243031052CF49F7049F460
:10365000805E883020F0C8010E945C15CF2CDC2CE5
:1036600006C0D80115969C91907F91F7F8CF8D2DCB
:1036700062960FB6F894DEBF0FBECDBFDF91CF913B
:103680001F910F91FF90EF90DF90CF9008951F93BF
:10369000CF93DF93CDB7DEB72C970FB6F894DEBF8C
:1036A0000FBECDBF4F83588769877A878B879C87EA
:1036B000CE0107960E945A198823C1F02F813885C0
:1036C0008A859B85892B31F03F3F11F080E003C054
:1036D0002F3FE1F781E0811147C04F81588569850F
:1036E0007A858B859C850E94B3183EC086E0FE01DA
:1036F0003796DE01119601900D928A95E1F7FF81D0
:10370000E8854A855B854115510531F0EF3F31F47D
:1037100081E0FF3F19F403C081E001C080E080FD3B
:1037200023C02091880130E0C90101968770992754
:103730006091870170E086179707F1F1F983EA83BA
:103740005D834C8396E0929FD001939FB00D11242E
:10375000A757BE4FFE01319601900D929A95E1F761
:10376000809388010E94C31816E080918701909190
:103770008801891779F1189FC001112487579E4F3E
:103780000E945A19882331F1E09187011E9FF001B0
:103790001124E757FE4F40815181628173818481FA
:1037A00095810E94B3188091870190E001968770FF
:1037B000992780938701D9CF0E947B1810928801A6
:1037C00010928701E9EBF1E086E0DF011D928A9516
:1037D000E9F7CACF2C960FB6F894DEBF0FBECDBF67
:1037E000DF91CF911F910895DF92EF92FF920F9397
:1037F0001F93CF93DF93FC01009709F48AC0E12C5B
:10380000F12CDD24D394EF0121968491853709F4BE
:1038100061C058F4843708F04EC0843008F06AC0A4
:103820008130D1F0823071F174C0883709F45DC005
:1038300050F4863709F455C0873709F06AC08E2DD9
:103840000E94B41E54C09CE7980F903708F061C0E6
:103850008F770E94FF1450C08F010E5F1F4FFE0133
:10386000849190E2980F983050F48770FD2D01C03C
:10387000FF0F8A95EAF78F2F0E94BA1E15C00E948B
:10388000371414C08F010E5F1F4FFE01849190E228
:10389000980F983068F48770FD2D01C0FF0F8A954E
:1038A000EAF78F2F0E94C01E0E94E31EE80124C089
:1038B0000E94FF14FBCF9F012E5F3F4FFE01C4917A
:1038C000CC2369F08FE99FE00197F1F700C0000079
:1038D000C150F6CF9F012E5F3F4FFE01F490E901EA
:1038E0000BC00E94A41EE82E07C00E94B71E0E94B3
:1038F000E31E02C00E9437149F2D992341F0EFE987
:10390000FFE03197F1F700C000009150F6CFFE01C3
:103910007ACFDF91CF911F910F91FF90EF90DF90C1
:10392000089508956093C3017093C4018093C50105
:103930009093C6010C9469180F931F930091C301D3
:103940001091C4012091C5013091C601062B172B9F
:10395000282B392B0093C3011093C4012093C50178
:103960003093C6011F910F910C9469180F931F9308
:103970000091C3011091C4012091C5013091C6018D
:1039800006231723282339230093C3011093C4016E
:103990002093C5013093C6011F910F910C946918B3
:1039A0000F931F930091C3011091C4012091C50191
:1039B0003091C60106271727282739270093C3010E
:1039C0001093C4012093C5013093C6011F910F913C
:1039D0000C9469181092BF011092C0011092C1019D
:1039E0001092C2010C94691841E050E060E070E070
:1039F00004C0440F551F661F771F8A95D2F7409366
:103A0000BF015093C0016093C1017093C2010C9437
:103A1000691841E050E060E070E004C0440F551FB9
:103A2000661F771F8A95D2F78091BF019091C001E0
:103A3000A091C101B091C201842B952BA62BB72B6D
:103A40008093BF019093C001A093C101B093C201C4
:103A50000C94691841E050E060E070E004C0440F4D
:103A6000551F661F771F8A95D2F740955095609530
:103A700070958091BF019091C001A091C101B0915A
:103A8000C20184239523A623B7238093BF0190937B
:103A9000C001A093C101B093C2010C94691841E028
:103AA00050E060E070E004C0440F551F661F771FB0
:103AB0008A95D2F78091BF019091C001A091C10178
:103AC000B091C20184279527A627B7278093BF010D
:103AD0009093C001A093C101B093C2010C946918E6
:103AE0000F931F930091BF011091C0012091C1015C
:103AF0003091C201062B172B282B392B0093BF01C5
:103B00001093C0012093C1013093C2011F910F9106
:103B10000C9469180F931F930091BF011091C0017D
:103B20002091C1013091C201062317232823392394
:103B30000093BF011093C0012093C1013093C201D3
:103B40001F910F910C9469180F931F930091BF015F
:103B50001091C0012091C1013091C20106271727A1
:103B6000282739270093BF011093C0012093C1017A
:103B70003093C2011F910F910C9469180895CF9250
:103B8000DF92EF92FF920F931F93CF93DF93EC019D
:103B9000C090C301D090C401E090C501F090C6016F
:103BA0008091BF019091C001A091C101B091C2016B
:103BB000C82AD92AEA2AFB2A0FE110E0B701A60198
:103BC000002E04C076956795579547950A94D2F7CD
:103BD00040FF07C0BE01802F0E94C71F81309105A2
:103BE00039F40150110950F7BE0180E00E94C71F4F
:103BF000DF91CF911F910F91FF90EF90DF90CF90C9
:103C0000089590910C01992361F190910D019923F0
:103C100041F1982F9695969596959F3088F4E0916E
:103C20000E01F0910F01E90FF11D877021E030E0E6
:103C300001C0220F8A95EAF78181822B8183089542
:103C40009091DA0190FF2DC01F928F9387E595E048
:103C50009F938F930E94AD070F900F900F900F903E
:103C6000089540910E0150910F0120E030E09FEF48
:103C7000FA01E20FF31F6281681799F09F3F19F470
:103C8000611101C0922F2F5F3F4F2E30310581F718
:103C90009F3F39F0FA01E90FF11D97FDFA958283F4
:103CA0000895089590910C01992369F190910D0167
:103CB000992349F1982F9695969596959F3090F473
:103CC000E0910E01F0910F01E90FF11D877021E0E5
:103CD00030E001C0220F8A95EAF7209581812823E0
:103CE000218308959091DA0190FF1FC01F928F9356
:103CF00089E395E09F938F930E94AD070F900F90FB
:103D00000F900F90089540910E0150910F0120E007
:103D100030E0FA01E20FF31F9281981301C0128282
:103D20002F5F3F4F2E303105A1F7089581E090E0DD
:103D3000E0910E01F0910F01E80FF91F108201963A
:103D400080319105A9F708958091D9010895909146
:103D5000D901982B9093D901089580959091D9011C
:103D600098239093D90108958093D90108951092D2
:103D7000D90108959091D801982B9093D801089576
:103D800080959091D80198239093D801089510922E
:103D9000D80108958093C70108951092C70108952E
:103DA00040910E0150910F0120E030E080E0FA01D7
:103DB000E20FF31F918191118F5F2F5F3F4F2F30E3
:103DC0003105A9F70895E0910E01F0910F0180915E
:103DD000D9018083E0910E01F0910F0180819091D3
:103DE000D801892B80839091C701992361F0E091DC
:103DF0000E01F0910F018081892B80830E94D01EDB
:103E000081111092C70180910E0190910F010C94C5
:103E1000B9128D3B60F4883A80F5853A28F58430F4
:103E200008F5813009F06BC081E090E00895883E8C
:103E300098F4803EB8F48F3B09F061C00E947B1873
:103E40002FEF80E792E0215080409040E1F700C0E2
:103E500000000E94102153C0803F08F450C090E041
:103E60009065089590E00895853A09F44BC0863A2C
:103E700009F04BC082E890E40895883A09F448C0FC
:103E8000893A09F448C08A3A09F448C08B3A09F4DF
:103E900048C08C3A09F448C08B3B09F448C08C3BBD
:103EA00009F448C08D3A09F448C0803B09F448C081
:103EB0008E3A09F448C08F3A09F448C0813B09F4AE
:103EC00048C0823B09F448C0833B09F448C0843BA6
:103ED00009F448C0853B09F448C0863B09F448C052
:103EE000873B09F448C0883B09F448C0893B09F482
:103EF00048C08A3B09F048C08AE296E4089580E011
:103F000090E0089581E890E4089583E890E40895AE
:103F100082EE94E4089589EE94E408958AEE94E4A0
:103F2000089585EB94E4089586EB94E4089583EB7B
:103F300094E4089584EB94E4089587EB94E4089561
:103F40008CEC94E408958DEC94E4089583E895E472
:103F500008958AE895E4089582E995E4089584E94E
:103F600095E4089581E296E4089583E296E4089545
:103F700084E296E4089585E296E4089586E296E464
:103F8000089587E296E4089580E094E408950E94FD
:103F9000CE07803EA8F4803C00F5813309F45CC074
:103FA00038F4893209F452C08A3209F45BC05FC028
:103FB0008933B1F08238A1F0853309F441C057C08C
:103FC000833E41F128F4803E99F0823EB9F04FC023
:103FD000863E31F1873E71F14AC00E94EB07089599
:103FE0009091ED0190FD02C091FF41C080EE3FC075
:103FF0008091ED0180FFFACF89E339C08091ED0116
:1040000082FF0CC08091ED0184FF02C080E02FC0D0
:1040100083EE2DC08091ED0182FFF4CF82EE27C0A8
:104020008091ED0183FF0AC08091ED0184FDEECF08
:1040300087EE1DC08091ED0183FFF6CF86EE17C09D
:104040008091ED0185FF06C089E211C08091ED01EC
:1040500085FFFACF85E30BC08091ED0186FF06C096
:104060008AE205C08091ED0186FFFACF81E30E94CC
:10407000091F089580E090E0089590933B0180939C
:104080003A0108958295982F9C7C96959695837316
:1040900044E0849F90011124922B892F8A7A86957F
:1040A0009575990F892B08951F93CF93DF931F92D6
:1040B000CDB7DEB799830E944220182F9981892FAE
:1040C0000E944220212F30E0322F2227A901482BC5
:1040D000CA010F90DF91CF911F9108958091F20155
:1040E000843009F11092DB0120E488E190E00FB602
:1040F000F894A895809360000FBE2093600083B76A
:10410000817F846083BF83B7816083BF7894889503
:1041100083B78E7F83BF88E10FB6F89480936000E9
:10412000109260000FBE089508950895CF930E94E5
:1041300094200E9444080E949520C0E08C2F0E9489
:104140006F09811105C0CF5FCE30C1F780E001C09B
:1041500081E0CF9108950C947B1882E084BD93E0B8
:1041600095BD9AEF97BD80936E0008952FB7F89490
:104170008091DC019091DD01A091DE01B091DF0121
:104180002FBF0895CF92DF92EF92FF920F931F936C
:104190002FB7F8944091DC015091DD016091DE0170
:1041A0007091DF012FBF6A017B01EE24FF248C0197
:1041B00020E030E0C016D106E206F30610F44150CC
:1041C0005109481B590BCA011F910F91FF90EF90A5
:1041D000DF90CF9008951F920F920FB60F92112487
:1041E0008F939F93AF93BF938091DC019091DD01FA
:1041F000A091DE01B091DF010196A11DB11D809358
:10420000DC019093DD01A093DE01B093DF01BF914B
:10421000AF919F918F910F900FBE0F901F901895A7
:104220000E94D10FF8942FEF87EA91E62150804049
:104230009040E1F700C0000087E090EBDC01809344
:10424000FB019093FC01A093FD01B093FE012CE0D3
:1042500088E190E00FB6F894A895809360000FBEB7
:1042600020936000FFCFEF92FF920F931F93CF93A5
:10427000DF93E82EF12C8F2D0E946F09C0E0D0E073
:10428000082F10E098010C2E02C0359527950A944E
:10429000E2F720FD05C02196C630D10599F709C087
:1042A0006C2F7F2D80E00E94CE07E812F4CF81E0D2
:1042B00005C0F3948EE0F812DECF80E0DF91CF915D
:1042C0001F910F91FF90EF900895CF93C82F8CE22C
:1042D0000E943321882321F08C2FCF910C9433211D
:1042E00080E0CF910895CF930E94C022811102C037
:1042F0000E94A6228CE795E00E941407C5E6C150F3
:1043000049F00E9444088FE39CE90197F1F700C04F
:104310000000F5CF85E795E00E94140789E20E942E
:104320006521811111C18AE20E94652181110E94DB
:10433000A62285E00E94652181110E9410210E9421
:10434000CB228093DA0187E00E946521882399F1CE
:104350008BE10E946521882351F09091DA0191FB55
:10436000882780F921E0822780FB91F922C08EE026
:104370000E946521882351F09091DA0192FB8827F1
:1043800080F921E0822780FB92F913C080E10E942E
:1043900065219091DA01882341F093FB882780F909
:1043A00021E0822780FB93F904C0892F809580FB50
:1043B00090F99093DA018091DA010E94CF220E9455
:1043C000DD228093ED0180EE0E946521882341F07B
:1043D0008091ED01982F909590FB80F98093ED01ED
:1043E00089E30E946521882359F09091ED0191FBAA
:1043F000882780F921E0822780FB91F99093ED01D5
:1044000082EE0E946521882359F09091ED0192FB84
:10441000882780F921E0822780FB92F99093ED01B3
:1044200086EE0E946521882359F09091ED0193FB5F
:10443000882780F921E0822780FB93F99093ED0192
:1044400083EE0E946521882359F09091ED0194FB41
:10445000882780F921E0822780FB94F99093ED0171
:1044600085E30E946521882359F09091ED0195FB29
:10447000882780F921E0822780FB95F99093ED0150
:1044800081E30E946521882359F09091ED0196FB0C
:10449000882780F921E0822780FB96F99093ED012F
:1044A00081E10E946521882359F09091ED0197FBED
:1044B000882780F921E0822780FB97F99093ED010E
:1044C0008091ED010E94E1228091ED0187FB882718
:1044D00080F980930D0187E20E946521C82F8EE14B
:1044E0000E9465218111C2608FE10E9465218111C6
:1044F000C46080E20E9465218111C86081E20E944F
:1045000065218111C06182E20E9465218111C06232
:1045100083E20E9465218111C06484E20E946521CA
:10452000882311F0C06802C0CC2329F08C2F0E9490
:10453000D8226C2F03C00E94D422682F70E080E044
:1045400090E0CF910C94921CCF9108956DEE7EEF88
:1045500080E090E00E949B2C60E082E090E00E946E
:104560008D2C60E083E090E00E948D2C60E084E080
:1045700090E00E948D2C60E085E090E00C948D2C02
:1045800080E090E00E94872C21E08D3E9E4F09F054
:1045900020E0822F089582E090E00C947F2C682F19
:1045A00082E090E00C948D2C83E090E00C947F2CC2
:1045B000682F83E090E00C948D2C84E090E00C94C4
:1045C0007F2C682F84E090E00C948D2C8091E20188
:1045D00080FF0BC06091130185E0689FB00111243A
:1045E00075956795759567952AC081FF09C060919B
:1045F000130185E0689FB0011124759567951FC070
:1046000082FF07C06091130185E0689FB00111240B
:1046100016C04091E3014423C9F06091120146178E
:1046200088F72091130185E0289F90011124429F73
:10463000C001439F900D112470E00E94512C6038FE
:10464000710540F46115710539F002C065E070E054
:10465000862F08958FE7089581E008958091E20103
:1046600080FF08C06091110170E0759567957595A0
:10467000679521C081FF06C06091110170E07595BA
:10468000679519C082FF04C06091110170E010C0ED
:104690008091E3018823C1F0609110018617A0F793
:1046A00090911101989FC001112470E00E94512C3B
:1046B0006038710528F46115710521F0862F089581
:1046C0008FE7089581E0089561E070E0F4CF803FC6
:1046D00021F40E94E622819504C0813F29F40E94C2
:1046E000E6228093E6010895823F21F40E94E622AB
:1046F000819504C0833F29F40E94E6228093E5015E
:104700000895893F19F40E942E2305C08A3F31F491
:104710000E942E2381958093E70108958B3F21F419
:104720000E942E23819504C08C3F29F40E942E23E1
:104730008093E8010895843F21F48091E401816031
:1047400017C0853F21F48091E401826011C0863F4B
:1047500021F48091E40184600BC0873F21F48091B3
:10476000E401886005C0883F31F48091E4018061F4
:104770008093E40108958D3F21F48091E2018160EE
:104780000BC08E3F21F48091E201826005C08F3F13
:1047900029F48091E20184608093E2010895803FD2
:1047A00039F48091E60187FF6CC01092E60169C080
:1047B000813F29F48091E6011816BCF362C0909104
:1047C000E501823F29F497FF5CC01092E50159C0D2
:1047D000833F19F41916CCF354C0893F41F48091FA
:1047E000E70118160CF04DC01092E7014AC08A3F4D
:1047F00029F48091E70187FF44C0F6CF8B3F39F45D
:104800008091E80187FF3DC01092E8013AC08C3FDB
:1048100029F48091E8011816BCF333C0843F21F4D9
:104820008091E4018E7F17C0853F21F48091E401DF
:104830008D7F11C0863F21F48091E4018B7F0BC0F6
:10484000873F21F48091E401877F05C0883F31F4E0
:104850008091E4018F7E8093E40113C08D3F21F4A9
:104860008091E2018E7F0BC08E3F21F48091E201A6
:104870008D7F05C08F3F29F48091E2018B7F80936B
:10488000E2018091E50181110EC08091E601811164
:104890000AC08091E701811106C08091E801811171
:1048A00002C01092E30108958091DA0183FF7EC077
:1048B00088EB95E00E9414078091E4011F928F938A
:1048C00083EB95E09F938F930E94AD0781EB95E07A
:1048D0000E9414072091E501822F992787FD90956A
:1048E0009F932F938EEA95E09F938F930E94AD073D
:1048F0008CEA95E00E9414072091E601822F992707
:1049000087FD90959F932F9389EA95E09F938F93CE
:104910000E94AD0787EA95E00E9414072091E70105
:10492000822F992787FD90959F932F9384EA95E096
:104930009F938F930E94AD0782EA95E00E9414072F
:104940002091E801822F992787FD90959F932F93BF
:104950008FE995E09F938F930E94AD078CE995E0D6
:104960000E9414078091E3011F928F9389E995E0DB
:104970009F938F930E94AD0787E995E00E941407EB
:104980008091E2011F928F9384E995E09F938F932A
:104990000E94AD0781E995E00E9414078DB79EB78C
:1049A0004C960FB6F8949EBF0FBE8DBF84EE91E07B
:1049B0000E94FE120E94B6209093E1018093E001D4
:1049C00008951F93CF93DF938091E0019091E101CF
:1049D0000E94C2204091E301442321F02091140160
:1049E00030E006C0209115015AE0259F9001112466
:1049F0008217930708F482C08091E5011091E601C7
:104A0000D091E701C091E801811107C0111105C0E3
:104A1000D11103C0CC2309F471C04F3F19F04F5F8F
:104A20004093E301181624F40E94E6228093E501E6
:104A30008091E50187FF05C00E94E6228195809361
:104A4000E501111624F40E94E6228093E60180918C
:104A5000E60187FF05C00E94E62281958093E6016A
:104A60006091E501662339F11091E601112319F1F6
:104A7000772767FD7095872F972F0E94562B23E38A
:104A800033E343E35FE30E94BA2B0E94232B60933E
:104A9000E501612F772767FD7095872F972F0E947B
:104AA000562B23E333E343E35FE30E94BA2B0E94D8
:104AB000232B6093E6011D1624F40E942E2380937D
:104AC000E7018091E70187FF05C00E942E238195B1
:104AD0008093E7011C1624F40E942E238093E801A2
:104AE0008091E80187FF05C00E942E238195809365
:104AF000E801DF91CF911F910C945424DF91CF9165
:104B00001F910895E4EEF1E085E0DF011D928A95A2
:104B1000E9F71092E3011092E20108958BED97E01E
:104B20000E9414071F9281E08F931F9285E08F935C
:104B30008DE897E09F938F930E94AD070F900F90A1
:104B40000F900F900F900F9008958330E9F128F4A3
:104B5000813061F0823009F10895853009F462C036
:104B600008F449C0863009F474C0089520911501F5
:104B7000862F90E0820F911D8F3F910520F4620FE8
:104B80006093150103C08FEF80931501809115018B
:104B90001F928F9386EC96E072C020911401862FAD
:104BA00090E0820F911D8F3F910520F4620F60937A
:104BB000140103C08FEF80931401809114011F92A0
:104BC0008F9384EB96E05BC020911301862F90E0D9
:104BD000820F911D8F3F910520F4620F60931301A6
:104BE00003C08FEF80931301809113011F928F9365
:104BF00081EA96E044C020911201862F90E0820F56
:104C0000911D8F3F910520F4620F6093120103C044
:104C10008FEF80931201809112011F928F938CE885
:104C200096E02DC020911101862F90E0820F911DFA
:104C30008F3F910520F4620F6093110103C08FEF45
:104C400080931101809111011F928F9383E796E069
:104C500016C020911001862F90E0820F911D8F3F8A
:104C6000910520F4620F6093100103C08FEF8093D1
:104C70001001809110011F928F9388E596E09F9319
:104C80008F930E94AD070F900F900F900F90089593
:104C9000833081F128F4813059F08230D1F00895C9
:104CA000853009F449C0B8F1863009F456C008953A
:104CB00080911501681720F4861B8093150102C0AE
:104CC00010921501809115011F928F9389E496E04F
:104CD00054C080911401681720F4861B809314013E
:104CE00002C010921401809114011F928F9387E3E8
:104CF00096E043C080911301681720F4861B8093CF
:104D0000130102C010921301809113011F928F931F
:104D100084E296E032C080911201681720F4861B6D
:104D20008093120102C010921201809112011F9211
:104D30008F938FE096E021C080911101681720F4D5
:104D4000861B8093110102C0109211018091110104
:104D50001F928F9386EF95E010C080911001681725
:104D600020F4861B8093100102C0109210018091E4
:104D700010011F928F938BED95E09F938F930E946C
:104D8000AD070F900F900F900F900895CF93C82FFD
:104D90001F928F9320EE38E03F932F930E94AD0730
:104DA00061E070E080E090E004C0660F771F881F2C
:104DB000991FCA95D2F70E94921C0F900F900F90E6
:104DC0000F90CF910C947B18CF938D3109F465C06F
:104DD000B0F58E3009F4CBC100F5873009F49BC1E2
:104DE000A8F4863009F06AC28091DA01817F8E7F53
:104DF0008093DA0185EE98E00E94140784E29DE03A
:104E00000E94140781E08093EA0180C1883009F490
:104E10004FC08B3009F47CC151C2863109F4EDC119
:104E200038F4803109F4B6C1813109F42DC246C28B
:104E3000893109F4CBC18B3109F486C13FC2853376
:104E400009F434C248F4873209F430C208F430C29D
:104E5000893209F42BC232C2833438F48A3308F021
:104E600029C2883309F454C129C2833409F41EC20B
:104E7000883409F023C20E947B1883E19DE00E94E0
:104E800014079FEF23ED80E3915020408040E1F72D
:104E900000C000000E94102139C183E39DE00E9400
:104EA00014070E94DD2A0E94AD120E94BC092EC187
:104EB00088E29DE00E94140786EF9AE00E941407A2
:104EC0000E94D4221F928F9383EF9AE09F938F9337
:104ED0000E94AD0781EF9AE00E9414070E94CB2246
:104EE000C82F8EED9AE00E9414071F92CF9329EDF0
:104EF0003AE03F932F930E94AD0787ED9AE00E941E
:104F000014078DEC9AE00E9414078C2F81701F9279
:104F10008F932AEC3AE03F932F930E94AD0788ECE1
:104F20009AE00E9414078EEB9AE00E941407C1FBDE
:104F3000882780F91F928F932BEB3AE03F932F93B2
:104F40000E94AD0789EB9AE00E9414078DEA9AE06F
:104F50000E941407C2FB882780F91F928F932AEAC8
:104F60003AE03F932F930E94AD0788EA9AE00E94AF
:104F700014078FE99AE00E941407C3FBCC27C0F9FD
:104F80001F92CF938CE99AE09F938F930E94AD0775
:104F90008AE99AE00E9414070E94DD22C82F86E861
:104FA0009AE00E9414071F92CF9321E83AE03F93C2
:104FB0002F930E94AD078FE79AE00E94140786E6C0
:104FC0009AE00E9414078C2F81701F928F9323E622
:104FD0003AE03F932F930E94AD078DB79EB780961E
:104FE0000FB6F8949EBF0FBE8DBF81E69AE00E9477
:104FF00014078AE49AE00E941407C1FB882780F90D
:105000001F928F9327E43AE03F932F930E94AD07BE
:1050100085E49AE00E94140783E39AE00E94140753
:10502000C2FB882780F91F928F9320E33AE03F93D9
:105030002F930E94AD078EE29AE00E9414078CE144
:105040009AE00E941407C3FB882780F91F928F9370
:1050500029E13AE03F932F930E94AD0787E19AE060
:105060000E9414078DE09AE00E941407C4FB882771
:1050700080F91F928F932AE03AE03F932F930E948A
:10508000AD0788E09AE00E94140786EF99E00E943D
:105090001407C5FB882780F91F928F9323EF39E00F
:1050A0003F932F930E94AD0781EF99E00E94140770
:1050B00085ED99E00E941407C6FB882780F91F92AE
:1050C0008F9322ED39E03F932F930E94AD0780ED3F
:1050D00099E00E94140788EC99E00E941407C7FB2E
:1050E000CC27C0F91F92CF9385EC99E09F938F93C3
:1050F0000E94AD0783EC99E00E9414078DB79EB71C
:105100004C960FB6F8949EBF0FBE8DBFC1E0DBC0BA
:105110008CE099E058C08091DA01C82FC17080FFFF
:1051200009C086E09DE00E9414078091DA01817F2A
:105130008E7F44C08AEF9CE00E9414078091DA01C0
:1051400081608093DA01E2CF8091DA0181FBCC2784
:10515000C0F991E0C927C0FB81F98093DA01CC2323
:1051600019F08DEE9CE025C08FED9CE02CC0809165
:10517000DA0182FBCC27C0F991E0C927C0FB82F994
:105180008093DA01CC2319F080ED9CE012C080EC12
:105190009CE019C08091DA0183FBCC27C0F991E033
:1051A000C927C0FB83F98093DA01CC2351F084EB4B
:1051B0009CE00E9414078091DA0181608093DA01FB
:1051C00082C087EA9CE00E941407A0CF88E99CE097
:1051D0000E9414078CE69CE00E94140785E39CE083
:1051E0000E94140788E09CE00E94140784EC9BE076
:1051F0000E94140786E99BE0E6CF88E89BE00E94C6
:1052000014070E94AD121F928F938EE69BE09F932E
:105210008F930E94AD0780910C011F928F9387E5B9
:105220009BE09F938F930E94AD07809171011F9225
:105230008F9384E49BE09F938F930E94AD078091AE
:105240000D011F928F9381E39BE09F938F930E94A8
:10525000AD078091DC019091DD01A091DE01B0915C
:10526000DF01BF93AF939F938F938DE19BE09F935B
:105270008F930E94AD078DB79EB746960FB6F894F0
:105280009EBF0FBE8DBF42CF0E947B18C0910D0103
:1052900081E0C827C0930D01CC2329F083E19BE076
:1052A0000E94140710C088E09BE08DCF80E003C00F
:1052B0008D5101C089530E94C62628CF86E09BE00D
:1052C0000E941407C0E08C2FCF91089580E00895CC
:1052D00080E00895CF93C82F8091EA01813081F05A
:1052E00020F0823009F44CC042C1A0910E01B0916F
:1052F0000F018C91813169F0823209F03AC109C005
:10530000A0910E01B0910F018C91813111F0823288
:1053100049F48C2F0E94662981112FC08C2F0E9486
:10532000E4262CC08C2F0E946829811126C0C4312C
:10533000E1F070F4CB3081F0C031D1F40E948E25C1
:1053400088ED98E00E94140782E08093EA0115C07E
:10535000C93259F0C83361F485EE98E00E94140711
:105360008CED98E00E94140708C01092EA0103C176
:1053700086ED98E00E941407FEC081E08170FDC0B8
:10538000C43220F5CE3108F0C0C0CB3099F1C8F45A
:10539000C73009F0D2C08AE08093150194E1909360
:1053A000140193E0909313018093120188E080939D
:1053B000110188E2809310018CE797E00E941407A6
:1053C000BFC0C33149F1C431C1F0B7C0CB3409F417
:1053D000A9C028F4C93289F0C83361F0AEC0C13524
:1053E00009F49EC0C23509F499C0CE3409F0A5C0B5
:1053F0006AE09EC00E948E25A3C08091E9018823A7
:1054000019F01092E9019CC089E897E00E94140706
:1054100081E08093EA01B1C083E697E00E9414071F
:1054200081E597E00E941407809115011F928F93E8
:105430008EE497E09F938F930E94AD078CE497E0F2
:105440000E9414078AE397E00E94140780911401D8
:105450001F928F9387E397E09F938F930E94AD07EE
:1054600085E397E00E94140786E297E00E94140704
:10547000809113011F928F9383E297E09F938F9304
:105480000E94AD0781E297E00E94140780E197E057
:105490000E941407809112011F928F938DE097E074
:1054A0009F938F930E94AD078BE097E00E941407B3
:1054B00086EF96E00E941407809111011F928F934E
:1054C00083EF96E09F938F930E94AD0781EF96E064
:1054D0000E9414078AED96E00E9414078091100143
:1054E0001F928F9387ED96E09F938F930E94AD0755
:1054F00085ED96E00E9414078DB79EB748960FB6CB
:10550000F8949EBF0FBE8DBF1BC0CE51EC2FF0E0B4
:10551000E15DFE4F80818093E90112C061E003C02C
:1055200061E006C06AE08091E9010E94A52508C0FB
:105530008091E9010E94482603C08AE797E013C0E2
:105540008091E901882369F01F928F9384E797E0A7
:105550009F938F930E94AD070F900F900F900F9025
:1055600004C081E797E00E94140781E006C0109212
:10557000EA0180E002C080E001CFCF910895E1E828
:10558000F0E08081886080838081816080838FB734
:10559000F89493E09093890090ED909388008FBFEA
:1055A0000895EFE6F0E08081826080830895EFE661
:1055B000F0E080818D7F80830895EFE6F0E08081C8
:1055C00092E08927808308951F920F920FB60F9261
:1055D00011242F933F934F935F936F937F938F93F8
:1055E0009F93AF93BF93EF93FF938091EB019091C3
:1055F000EC0101969093EC018093EB01811103C0C3
:1056000082E00E94BC09E091EC01E695E695F0E0AD
:10561000ED5BF24FE4918091EB018E1303C080E0CB
:105620000E94BC09FF91EF91BF91AF919F918F9123
:105630007F916F915F914F913F912F910F900FBE8E
:105640000F901F90189504D06894B1118DC00895E3
:1056500070D088F09F5790F0B92F9927B751A0F0DC
:10566000D1F0660F771F881F991F1AF0BA95C9F7F6
:1056700012C0B13081F077D0B1E0089574C0672FC7
:10568000782F8827B85F39F0B93FCCF386957795A6
:105690006795B395D9F73EF490958095709561958F
:1056A0007F4F8F4F9F4F0895E89409C097FB3EF4BA
:1056B00090958095709561957F4F8F4F9F4F99235F
:1056C000A9F0F92F96E9BB279395F69587957795DD
:1056D0006795B795F111F8CFFAF4BB0F11F460FF9D
:1056E0001BC06F5F7F4F8F4F9F4F16C0882311F0F5
:1056F00096E911C0772321F09EE8872F762F05C009
:10570000662371F096E8862F70E060E02AF09A95A3
:10571000660F771F881FDAF7880F9695879597F998
:10572000089557FD9058440F551F59F05F3F71F091
:105730004795880F97FB991F61F09F3F79F08795F8
:105740000895121613061406551FF2CF4695F1DF81
:1057500008C0161617061806991FF1CF8695710511
:10576000610508940895E894BB2766277727CB0145
:1057700097F908950BD078C069D028F06ED018F052
:10578000952309F05AC05FC01124EECFCADFA0F301
:10579000959FD1F3950F50E0551F629FF001729FC6
:1057A000BB27F00DB11D639FAA27F00DB11DAA1FE5
:1057B000649F6627B00DA11D661F829F2227B00D32
:1057C000A11D621F739FB00DA11D621F839FA00DBD
:1057D000611D221F749F3327A00D611D231F849F0D
:1057E000600D211D822F762F6A2F11249F57504064
:1057F0008AF0E1F088234AF0EE0FFF1FBB1F661FFF
:10580000771F881F91505040A9F79E3F510570F0B7
:1058100014C0AACF5F3FECF3983EDCF386957795F2
:105820006795B795F795E7959F5FC1F7FE2B880FB2
:10583000911D9695879597F9089597F99F6780E848
:1058400070E060E008959FEF80EC089500240A94D2
:105850001616170618060906089500240A9412164B
:105860001306140605060895092E0394000C11F47E
:10587000882352F0BB0F40F4BF2B11F460FF04C02B
:105880006F5F7F4F8F4F9F4F0895991B79E004C042
:10589000991F961708F0961B881F7A95C9F780956F
:1058A000089597FB072E16F4009407D077FD09D0D2
:1058B0000E946B2C07FC05D03EF4909581959F4F7C
:1058C0000895709561957F4F0895EE0FFF1F059025
:1058D000F491E02D0994AA1BBB1B51E107C0AA1F3C
:1058E000BB1FA617B70710F0A61BB70B881F991F81
:1058F0005A95A9F780959095BC01CD010895F99925
:10590000FECF92BD81BDF89A992780B50895A8E190
:10591000B0E042E050E00C94A22C262FF999FECF83
:105920001FBA92BD81BD20BD0FB6F894FA9AF99ABC
:105930000FBE019608950E948D2C272F0C948E2C5B
:10594000DC01CB01FC01F999FECF06C0F2BDE1BD3F
:10595000F89A319600B40D9241505040B8F708952E
:04596000F894FFCFE9
:105964000220030BF40BD10B9D0B6A0B0101C80140
:1059740028080A03140A3F4D362039C60479044323
:10598400042304EA035D0376038F03A803C8030119
:0A59940002030405060708090000DD
:00000001FF
